:100000000C9472070C94B9070C94B9070C94B907B7
:100010000C94B9070C94B9070C94B9070C94B90760
:100020000C94B9070C94B9070C9409270C94DC279D
:100030000C94731E0C94B9070C94B9070C94B9076F
:100040000C94B9070C94B9070C94B9070C94B90730
:100050000C94B9070C94DB1E0C94B9070C94B907E7
:100060000C94B9070C94B9070C94B9070C94B90710
:100070000C94B9070C94B9070C94B9070C94B90700
:100080000C94B9070C94B9070C94B9070C94B907F0
:100090000C94B9070C94B9070C94B9070C94B907E0
:1000A0000C94B9070C94B9070C94B90729003A00CD
:1000B0003B003C003D003E003F004000410042004C
:1000C000430044004500A80035001E001F0020002A
:1000D00021002200230024002500260027002D00F7
:1000E0002E002A002B0014001A000800150017002B
:1000F0001C0018000C00120013002F00300031000B
:10010000390004001600070009000A000B000D006A
:100110000E000F003300340028000000E1001D0035
:100120001B00060019000500110010003600370002
:100130003800520000000000E000E200E300000090
:1001400000002C000000E7000000000050005100FB
:100150004F0000000100010001000100010001004A
:100160000100010001000100010001000100010087
:100170000100010001000100010001000100010077
:100180000100010001000100010001000100010067
:100190000100010001000100010001000100010057
:1001A0000100010001000100010001000100010047
:1001B0000100010001000100010001000100010037
:1001C0000100000001000100010001000100010028
:1001D0000100010001000100010001000100000018
:1001E0000100010001000100000001000000010009
:1001F00000000000010001000100000001000100FA
:1002000001000100010001000100010001000100E6
:1002100001000100010001000100010001000100D6
:1002200001000100010001000100010001000100C6
:1002300001000100010001000100010001000100B6
:1002400001000100010001000100010001000100A6
:100250000100010001000100010001000100010096
:100260000100010001000100010000000100010087
:100270000100010001000100010001000100010076
:100280000100010001000000010001000100010067
:10029000000001000000010000000000010001005A
:1002A0000100000001000100010001000100010047
:1002B0000100010001000100010001000100010036
:1002C0000100010001000100010001000100010026
:1002D0000100010001000100010001000100010016
:1002E0000100010001000100010001000100010006
:1002F00001000100010001000100010001000100F6
:1003000001000100010001000100010001000100E5
:1003100001000000010001000100010001000100D6
:1003200001000100010001000100010001000000C6
:1003300001000100010001000000010000000100B7
:1003400000000000010001000100000001000100A8
:100350000100010001000100010001000100010095
:100360000100010001000100010001000100010085
:100370000100010001000100010001000100010075
:100380000100010001000100010001000100010065
:100390000100010001000100010001000100010055
:1003A0000100010001000100010001000100010045
:1003B0000100010001000100010000000100010036
:1003C0000100010001000100010001000100010025
:1003D0000100010001000000010001000100010016
:1003E0000000010000000100000000000100010009
:1003F00001000000010001000100010001000100F6
:1004000001000100010001000100010001000100E4
:1004100001000100010001000100010001000100D4
:1004200001000100010001000100010001000100C4
:1004300001000100010001000100010001000100B4
:1004400001000100010001000100010001000100A4
:100450000100010001000100010001000100010094
:100460000100000001000100010001000100010085
:100470000100010001000100010001000100000075
:100480000100010001000100000001000000010066
:100490000000000001000100010000000100010057
:1004A0000100010001000100010001000100010044
:1004B0000100010001000100010001000100010034
:1004C0000100010001000100010001000100010024
:1004D0000100010001000100010001000100010014
:1004E0000100010001000100010001000100010004
:1004F00001000100010001000100010001000100F4
:1005000001000100010001000100000001000100E4
:1005100001000100010001000100010001000100D3
:1005200001000100010000000100010001000100C4
:1005300000000100000001000000000001000100B7
:1005400001000000010001000100010001000100A4
:100550000100010001000100010001000100010093
:100560000100010001000100010001000100010083
:100570000100010001000100010001000100010073
:100580000100010001000100010001000100010063
:100590000100010001000100010001000100010053
:1005A0000100010001000100010001000100010043
:1005B0000100000001000100010001000100010034
:1005C0000100010001000100010001000100000024
:1005D0000100010001000100000001000000010015
:1005E0000000000001000100010000000100010006
:1005F00001000100010001000100010001000100F3
:1006000001000100010001000100010001000100E2
:1006100001000100010001000100010001000100D2
:1006200001000100010001000100010001000100C2
:1006300001000100010001000100010001000100B2
:1006400001000100010001000100010001000100A2
:100650000100010001000100010000000100010093
:100660000100010001000100010001000100010082
:100670000100010001000000010001000100010073
:100680000000010000000100000000000100010066
:100690000100000001000100010001000100010053
:1006A0000100010001000100010001000100010042
:1006B0000100010001000100010001000100010032
:1006C0000100010001000100010001000100010022
:1006D0000100010001000100010001000100010012
:1006E0000100010001000100010001000100010002
:1006F00001000100010001000100010001000100F2
:1007000001000000010001000100010001000100E2
:1007100001000100010001000100010001000000D2
:1007200001000100010001000000010000000100C3
:1007300000000000010001000100000001000100B4
:1007400001000100010001000100010001000100A1
:100750000100010001000100010001000100010091
:100760000100010001000100010001000100010081
:100770000100010001000100010001000100010071
:100780000100010001000100010001000100010061
:100790000100010001000100010001000100010051
:1007A0000100010001000100010000000100010042
:1007B0000100010001000100010001000100010031
:1007C0000100010001000000010001000100010022
:1007D0000000010000000100000000000100010015
:1007E0000100000001000100010001000100010002
:1007F00001000100010001000100010001000100F1
:1008000001000100010001000100010001000100E0
:1008100001000100010001000100010001000100D0
:1008200001000100010001000100010001000100C0
:1008300001000100010001000100010001000100B0
:1008400001000100010001000100010001000100A0
:100850000100000001000100010001000100010091
:100860000100010001000100010001000100000081
:100870000100010001000100000001000000010072
:100880000000000001000100010000000100010063
:100890000100010001000100010001000100010050
:1008A0000100010001000100010001000100010040
:1008B0000100010001000100010001000100010030
:1008C0000100010001000100010001000100010020
:1008D0000100010001000100010001000100010010
:1008E0000100010001000100010001000100010000
:1008F00001000100010001000100000001000100F1
:1009000001000100010001000100010001000100DF
:1009100001000100010000000100010001000100D0
:1009200000000100000001000000000001000100C3
:1009300001000000010001000100010001000100B0
:10094000010001000100010001000100010001009F
:10095000010001000100010001000100010001008F
:10096000010001000100010001000100010001007F
:10097000010001000100010001000100010001006F
:10098000010001000100010001000100010001005F
:10099000010001000100010001000100010001004F
:1009A0000100000001000100010001000100010040
:1009B0000100010001000100010001000100000030
:1009C0000100010001000100000001000000010021
:1009D0000000000001000100010000000100010012
:1009E00001000100010001000100010001000100FF
:1009F00001000100010001000100010001000100EF
:100A000001000100010001000100010001000100DE
:100A100001000100010001000100010001000100CE
:100A200001000100010001000100010001000100BE
:100A300001000100010001000100010001000100AE
:100A4000010001000100010001000000010001009F
:100A5000010001000100010001000100010001008E
:100A6000010001000100000001000100010001007F
:100A70000000010000000100000000000100010072
:100A8000010000000100010001000100010001005F
:100A9000010001000100010001000100010001004E
:100AA000010001000100010001000100010001003E
:100AB000010001000100010001000100010001002E
:100AC000010001000100010001000100010001001E
:100AD000010001000100010001000100010001000E
:100AE00001000100010001000100010001000100FE
:100AF00001000000010001000100010001000100EF
:100B000001000100010001000100010001000000DE
:100B100001000100010001000000010000000100CF
:100B200000000000010001000100000064321464B4
:100B30003214783C1E1E140A050000000001010159
:100B40000202030405050607090A0B0C0E0F111219
:100B5000141517191B1D1F212325282A2C2F31346A
:100B600036393B3E414346494C4F5255585A5D61D8
:100B700064676A6D707376797C7F8386898C8F92C7
:100B800095989B9EA2A5A7AAADB0B3B6B9BCBEC1AD
:100B9000C4C6C9CBCED0D3D5D7DADCDEE0E2E4E6FA
:100BA000E8EAEBEDEEF0F1F3F4F5F6F8F9FAFAFB1A
:100BB000FCFDFDFEFEFEFFFFFFFFFFFFFFFEFEFE52
:100BC000FDFDFCFBFAFAF9F8F6F5F4F3F1F0EEEDC1
:100BD000EBEAE8E6E4E2E0DEDCDAD7D5D3D0CECB50
:100BE000C9C6C4C1BEBCB9B6B3B0ADAAA7A5A29EC2
:100BF0009B9895928F8C898683807C797673706DB3
:100C00006A6764615D5A5855524F4C494643413EAC
:100C10003B393634312F2C2A282523211F1D1B193F
:100C200017151412110F0E0C0B0A090706050504FF
:100C300003020201010100000000000000000101A8
:100C4000010101010101010202020202020202028B
:100C5000030303030303030304040404040405055A
:100C6000050505060606060607070707080808081B
:100C70000909090A0A0A0A0B0B0B0C0C0C0D0D0DC5
:100C80000E0E0F0F0F101011111112121313141456
:100C9000151516161717181819191A1A1B1C1C1DCA
:100CA0001D1E1F1F20202122222324252526272721
:100CB00028292A2B2B2C2D2E2F2F3031323334354F
:100CC00036363738393A3B3C3D3E3F40414243445B
:100CD000464748494A4B4C4D4F5051525355565731
:100CE000585A5B5C5E5F606263646667696A6C6DDC
:100CF0006E707173747678797B7C7E808183848654
:100D0000888A8B8D8F91929496989A9B9D9FA1A390
:100D1000A5A7A9ABADAFB1B3B5B7B9BBBDBFC1C492
:100D2000C6C8CACCCFD1D3D6D8DADCDFE1E4E6E856
:100D3000EBEDF0F2F5F7FAFCFF12036B00650079BA
:100D40000062006F00610072006400000016037111
:100D5000006D006B006200750069006C0064006546
:100D600000720000000403090409026D0004010080
:100D7000A0FA09040000010301010009211101008A
:100D8000012240000705810308000A09040100014F
:100D900003010200092111010001224D0007058213
:100DA0000308000A090402000103000000092111E0
:100DB0000100012236000705830308000A09040325
:100DC0000001030000000921110100012239000780
:100DD0000584032000011201100100000008EDFE4F
:100DE000606001000102000105010906A10105077B
:100DF00019E029E71500250195087501810205080C
:100E00001901290595057501910295017503910157
:100E10000507190029F71500250195F875018102CC
:100E2000C005010980A10185021601002603001AF0
:100E300081002A8300751095018100C0050C09010D
:100E4000A1018503160100269C021A01002A9C02BA
:100E5000751095018100C005010902A1010901A1D8
:100E60000005091901290515002501950575018160
:100E700002950175038101050109300931158125AC
:100E80007F95027508810609381581257F950175C2
:100E9000088106050C0A38021581257F9501750821
:100EA0008106C0C005010906A101050719E029E76F
:100EB00015002501950875018102950175088101CC
:100EC000050819012905950575019102950175031C
:100ED00091010507190029FF150026FF00950675E9
:100EE000088100C011241FBECFEFDAE0DEBFCDBF06
:100EF00004B603FE27C080918A0290918B02A091D4
:100F00008C02B0918D028730904BA740B04BD1F44A
:100F100010928A0210928B0210928C0210928D0213
:100F200014BE84B7877F84BF0FB6F894A8958091CC
:100F30006000886180936000109260000FBEE0E066
:100F4000F8E3099511E0A0E0B1E0E4E6F6E502C0BF
:100F500005900D92AC33B107D9F722E0ACE3B1E0D4
:100F600001C01D92AA38B207E1F70E9456240C94E2
:100F7000302B0C94000090E080E0089508950895CF
:100F800081E0089581FF03C0859A8D980895859822
:100F9000FCCF81E008950C94C0070E94E5162FEF66
:100FA00084E39CE0215080409040E1F700C00000C5
:100FB0000C94001FFF920F931F93CF93DF938C012C
:100FC000FC01C081D18180919301811148C082814F
:100FD000882309F43FC0CE010E944C1CF82E682FD4
:100FE000CE010E94F21BBE018F2D0E947609EC01FA
:100FF000B8010E94CB07882309F478C0B801CE015C
:101000000E94860B882309F471C0C633F0E7DF071E
:1010100009F484C0C0F5C53190E7D90728F5C2307E
:10102000E0E7DE0708F099C0C115F0E7DF0709F433
:1010300058C0C130D04709F460C081E080933E01C0
:1010400080933F01C801DF91CF911F910F91FF90D5
:101050000C94C907CE010E94211CF82EC4CFCE01EA
:101060000E944C1CBE01C1CFC43390E7D90709F4DC
:101070004EC0C533D04709F7F80182818823B1F10A
:101080000E946E0F33C0CA33F0E7DF0709F457C080
:1010900070F4F8018281C833F0E7DF0709F44AC031
:1010A00008F443C0882311F10E94B20E1FC0CC3354
:1010B000E0E7DE0709F4D5C008F448C0CD33D047D7
:1010C00009F0BBCFF8018281882309F4F1C01092A6
:1010D0003F010E94A51E90933D0180933C0180E258
:1010E000CDC0F801828181110E94CD0780E0DF919F
:1010F000CF911F910F91FF900895F801828188236D
:10110000A9F380913002816080933002EFCFF80123
:101110008281882359F30E94780FE8CFF8018281F9
:10112000882321F30E94630EE1CF8823F9F20E9405
:101130007B0EDCCF8823D1F20E949A0ED7CFF80124
:101140008281882399F20E94CA0ED0CFF801828151
:10115000882361F20E94E20EC9CFF80182818823C0
:1011600009F470CF0E94041E811102C00E94E31D89
:101170000E94211E90E090937C0280937B02FE01EE
:10118000E350F04780917B028160E231F105C8F4C1
:10119000E453F74F0C94E22ADE08EA08EE08F2085E
:1011A000F608FA08FE08020906090A090E091209DA
:1011B00016091A091E09220926092A0980917B02AB
:1011C000826080937B0280917B020E94251E0E9498
:1011D000E5168CCF80917B028460F3CF80917B02F7
:1011E0008860EFCF80917B028061EBCF80917B02A2
:1011F0008062E7CF80917B028064E3CF80917B02A5
:101200008068DFCF80917B028460EACF80917B028F
:101210008E7FD7CF80917B028D7FD3CF80917B0251
:101220008B7FCFCF80917B02877FCBCF80917B025A
:101230008F7EC7CF80917B028F7DC3CF80917B0251
:101240008F7BBFCF80917B028F77BBCF80917B025A
:101250008B7FEACF90917B02892F97FB87F980588B
:10126000B0CFF8018281882361F010923E010E9484
:10127000A51E90933D0180933C0182E00E946F1473
:1012800035CF80913E0181110FC080913C0190913A
:101290003D010E94B11E883C910530F486E20E9417
:1012A000441386E20E94201482E00E9476141ECF2E
:1012B00080913F0181110FC080913C0190913D01CF
:1012C0000E94B11E883C910530F487E20E944413CD
:1012D00087E20E94201480E2E8CF0C94D50B0C9496
:1012E000D70B0C94C2070C9471090895972F70E0E6
:1012F0002EE0929F600D711D1124FB0194E5899FE2
:10130000E00DF11D1124EE0FFF1FE455FF4F8591F5
:1013100094910895FC01EE0FFF1FE45DF44F859159
:10132000949108950E9476090E94050B811520E48E
:10133000920708F08DC0811540E3940708F0E8C0DB
:10134000803E910508F071C0803C910508F0CCC04A
:10135000883A910580F4853A910508F0CAC0813039
:10136000910509F46EC020F08430910508F069C041
:1013700090E080E008958D3B9105D0F7883A910583
:1013800009F404C1893A910509F403C18A3A910527
:1013900009F402C18B3A910509F401C18C3A910517
:1013A00009F400C18B3B910509F4FFC08C3B91050A
:1013B00009F4FEC08D3A910509F4FDC0803B91050A
:1013C00009F4FCC08E3A910509F4FBC08F3A9105EF
:1013D00009F4FAC0813B910509F4F9C0823B9105FB
:1013E00009F4F8C0833B910509F4F7C0843B9105EB
:1013F00009F4F6C0853B910509F4F5C0863B9105DB
:1014000009F4F4C0873B910509F4F3C0883B9105CA
:1014100009F4F2C0893B910509F4F1C08A3B9105BA
:1014200009F4F0C080E094E408958F3F910509F03D
:1014300048F4803F910508F067C0883E910508F0A8
:1014400097CF0895811520E2920708F05FC00895B4
:10145000811543E5940760F5811522E5920708F0B0
:1014600062C0811541E5940708F058C0811520E558
:10147000920708F450C09C0154E0369527955A9580
:10148000E1F7922F9370482F437021E030E002C0C3
:10149000220F331F4A95E2F73C68392B86958695D3
:1014A000837040E2849FC0011124822B932B089506
:1014B000811545E5940750F4811524E5920708F459
:1014C00046C0982F8827846F906A0895811546E555
:1014D000940708F450C09C0130569F70211530418C
:1014E00008F046CF90620895805C91090E948A09B5
:1014F0000895853A910509F443C0863A910509F0AB
:1015000042C082E890E40895906508959F70EECF00
:101510009927906C08959F70906A0895982F882756
:10152000816F906A0895AC014370552721E030E047
:1015300002C0220F331F4A95E2F78695869540E256
:10154000849FC0011124822B932B9C680895AC01C9
:101550004370552721E030E002C0220F331F4A9527
:10156000E2F78695869540E2849FC0011124822B84
:10157000932B9A680895982F882788279F71B2CF58
:1015800081E890E4089583E890E4089582EE94E47D
:10159000089589EE94E408958AEE94E4089585EB25
:1015A00094E4089586EB94E4089583EB94E408951D
:1015B00084EB94E4089587EB94E408958CEC94E430
:1015C00008958DEC94E4089583E895E408958AE8FD
:1015D00095E4089582E995E4089584E995E40895F1
:1015E00081E296E4089583E296E4089584E296E425
:1015F000089585E296E4089586E296E4089587E2E8
:1016000096E408958AE296E41CCF8238910549F168
:10161000B0F48133910509F45CC048F48932910536
:1016200009F452C08A32910509F458C008958533EF
:10163000910509F444C08933910599F00895833EDA
:10164000910531F138F4803E910591F0823E91058B
:10165000B1F00895863E910511F1873E910541F163
:10166000089520917B022370C9F080EE90E00895E8
:1016700020917B0220FF12C089E390E00895209121
:101680007B0222FF0BC024FF2EC090E080E0089573
:1016900020917B0222FD2AC024FDF7CF08952091DE
:1016A0007B0223FFFBCF24FDF0CF87EE90E008956F
:1016B00020917B0223FFF0CF86EE90E008952091E9
:1016C0007B0225FD16C0089520917B0225FD14C0E4
:1016D000089520917B0226FD12C0089520917B027F
:1016E00026FD10C0089583EE90E0089582EE90E00C
:1016F000089589E290E0089585E390E008958AE2F4
:1017000090E0089581E390E0C9CF08950F931F936F
:10171000CF938C01FB018281811106C0C1E08C2F27
:10172000CF911F910F910895C0914D01C11125C016
:101730000531104799F70E94850B81E080934D0198
:101740000E94A51E90934C0180934B011092400182
:1017500010924201109241011092440110924301F3
:1017600010924601109245011092480110924701D3
:1017700010924A0110924901D2CF80914B01909171
:101780004C010E94B11E883C910540F680914001B9
:10179000E82FF0E0EE0FFF1FEF5BFE4F1183008399
:1017A0008F5F80934001C0E0BACF0C94BE070C94C9
:1017B000BF0785B7806885BF85B7806885BFA2E20F
:1017C000B1E061E070E08D91E82FE295EF70F0E01C
:1017D00041A18F709B0101C0220F8A95EAF7922FD9
:1017E0009095942391A382A1822B82A381E0A832B9
:1017F000B80749F7A4E1B1E061E070E08D91E82F0E
:10180000E295EF70F0E041A18F709B0101C0220FC3
:101810008A95EAF7922F9095942391A382A1822B27
:1018200082A381E0A232B80749F7EAE5F1E0AEE42D
:10183000B1E086E691E0119211921D921D928E17F1
:101840009F07C9F70C946D094F925F927F928F9218
:101850009F92AF92BF92CF92DF92EF92FF920F933F
:101860001F93CF93DF930EE411E092E2E92E91E013
:10187000F92EE801CC24C394D12C99249394A88008
:10188000B98019821882D7018D917D01E82FE295E8
:10189000EF70F0E091A18F70960101C0220F8A9540
:1018A000EAF7892F822B81A382A1822E809488213E
:1018B00082A3B0EABA95F1F784E1482E81E0582E70
:1018C00090E080E0D2017D912D01472F42954F702D
:1018D00050E0DA0190967C90488159817F70D60162
:1018E00002C0AA0FBB1F7A95E2F7BD01672109F07C
:1018F00057C0B601082E02C0660F771F0A94E2F7A0
:10190000462B572B5983488301968E309105D1F68B
:1019100081A1882281A282A1282B22A3888199817A
:10192000A816B90641F0909266010E94A51E9093F8
:101930006801809367012296B8E2EB16B1E0FB06DE
:1019400009F09DCF809166018823B9F080916701ED
:10195000909168010E94B11E069778F0EAE5F1E0E7
:101960008AE591E0D8012D913D918D01219331932C
:101970008A179B07B9F7109266010E946F0981E0F0
:10198000DF91CF911F910F91FF90EF90DF90CF905B
:10199000BF90AF909F908F907F905F904F900895F1
:1019A00070E060E0ADCFE82FF0E0EE0FFF1FE65AE9
:1019B000FE4F808191810895089531B3242F2095A1
:1019C000232331B3432B3FB7F894FC01680F791FF1
:1019D000E617F70711F43FBF0895819198E041BBE6
:1019E000000000C087FF21BB880F000000C000C0BE
:1019F00000C021BB00C09A9591F7EACF20B3242BF9
:101A000020BB9B01220F331F620F731F0E94DD0C4E
:101A100087EC90E00197F1F700C00000089540E1E5
:101A20000C94FE0CCF92DF92EF92FF920F931F93D4
:101A3000CF93DF93E901662309F466C0E42EF12C0D
:101A4000EFEFF0E0E61BF109EE9D8001EF9D100D38
:101A5000FE9D100D1124212FE12FFF27EE1AFF0A02
:101A60005CE3C52ED12CB6010E94BA2AFB01BC0151
:101A7000E69EC001E79E900DF69E900D1124B601E2
:101A80000E94BA2AE230F10589F168F4812F262FED
:101A9000210F309781F0242F461B319761F080E0B1
:101AA00020E040E008C0E430F10551F128F1842F36
:101AB000861B3597A1F7E42FF0E0E75CF34F4491E4
:101AC000E22FF0E0E75CF34F9491E82FF0E0E75C61
:101AD000F34FE49149839883EA83DF91CF911F917B
:101AE0000F91FF90EF90DF90CF900895862F810F98
:101AF000E42F412F2E2FDFCFE42FE61B842FF9CFC9
:101B0000842F462F410FD7CF842F242FD4CF88E0A6
:101B100090E00C94F02AAB01BC0188E090E00C94BA
:101B20000E2BEDE5F2E083E0808310925E028FEFF2
:101B30008283838360915D0270915E0280915F0277
:101B4000909160020C948B0D80915D02E5E6F2E0CD
:101B500080FF06C066E070E085E692E00C940F0D11
:101B6000118210821282339682E0E737F807C1F7BC
:101B7000F1CFE5E6F2E0818360834283339692E021
:101B8000E737F907C1F70C94A40DEF92FF920F937A
:101B90001F93CF93DF9300D01F92CDB7DEB7182FDE
:101BA000E92EF62E042F80915D0290915E02A091A5
:101BB0005F02B09160028093610290936202A093F1
:101BC0006302B093640280915D0280FF1FC09E019A
:101BD0002F5F3F4F812F9E2D0E94120D8091610239
:101BE00010FB87F9809361021695809162028078DC
:101BF000812BE0FA87F980936202F09263020093EE
:101C000064024B8169818A810E94B90D0F900F9007
:101C10000F90DF91CF911F910F91FF90EF9008955A
:101C20000F931F93CF93DF93EC01062F142F909106
:101C30005D0290FF43C0892F8E77823021F5CE015F
:101C40000E94C50D80915D02C0FB87F980935D0203
:101C5000C69580915E028078C82BD0FBC7F9C093EF
:101C60005E0200935F021093600260915D027091CA
:101C70005E0280915F0290916002DF91CF911F918F
:101C80000F910C948B0D892F86958F732EE3280F5F
:101C90002F73243018F410916002D4CF865C8F73B8
:101CA000893080F6991F9927991FD0915E02CD2F18
:101CB000CC0FC92BD7FBDD27D0F9C4CFDF91CF9153
:101CC0001F910F910895EDE5F2E02081221F222758
:101CD000221F30915E02432F440F842F822B37FB4B
:101CE000992790F9089668E671E00E94CE2A438110
:101CF00062810C94100E20915D02221F2227221F68
:101D000030915E02432F440F842F822B37FB99279B
:101D100090F98830910540F4805A9E4F40916002BE
:101D200060915F020C94100E089768E671E00E94C3
:101D3000CE2AF4CF60915F02683F90F4685F809193
:101D40005D02881F8827881F90915E02292F220F2D
:101D500097FB992790F940916002822B0C94100E0A
:101D60006FEFEDCF60915F02683090F06850809126
:101D70005D02881F8827881F90915E02292F220FFD
:101D800097FB992790F940916002822B0C94100EDA
:101D900060E0EDCF40916002483F90F4485F809151
:101DA0005D02881F8827881F90915E02292F220FCD
:101DB00097FB992790F960915F02822B0C94100E8B
:101DC0004FEFEDCF40916002483090F04850809145
:101DD0005D02881F8827881F90915E02292F220F9D
:101DE00097FB992790F960915F02822B0C94100E5B
:101DF00040E0EDCF90915D0290FF3BC09178811162
:101E000026C0926090935D0260915D0270915E02C7
:101E100080915F02909160020E948B0D80915D0223
:101E2000982F9E779230D9F410927E01881F8827D0
:101E3000881F90915E02292F220F97FB992790F916
:101E40004091600260915F02822B0C94100E8931E8
:101E500010F09063D7CF8F73880F982BD3CF982F24
:101E60009695925C9F73963108F791E090937E016E
:101E7000DDCF08958091300281608093300281E04F
:101E800080937F010E94041E811104C00E94E31D03
:101E90000E94910D0E94870D60935D0270935E0217
:101EA00080935F02909360026E7761F40E94910DBF
:101EB0000E94870D60935D0270935E0280935F02C3
:101EC0009093600281E080937E0180915D0280FFAB
:101ED00004C086958F730C94FA0E089580915D026C
:101EE00086958F738F5F893108F081E00C94FA0E2C
:101EF00090915D02892F8E7F90FF816080935D02BB
:101F000060915D0270915E0280915F02909160022B
:101F10000E948B0D80915D0280FF04C086958F73B7
:101F20000C94FA0E10927E012FEF80E792E0215080
:101F300080409040E1F700C000000C94A40DCF93C6
:101F4000C82F80917C0190917D010E94B11EEC2FE1
:101F5000F0E0EB5CF44FE491E817190609F010F596
:101F60000E94A51E90937D0180937C01E0917B01EE
:101F7000F0E0E75CF44F449180915D02881F882770
:101F8000881F90915E02292F220F97FB992790F9C5
:101F900060915F02822B0E94C50D80917B018F5F53
:101FA00080937B01CF910895CF93C82F80917901C1
:101FB00090917A010E94B11EEC2FF0E0EE5CF44F9C
:101FC000E491E817190609F0E8F40E94A51E909321
:101FD0007A01809379014091600260915F02809163
:101FE0007701909178010E94C50D809177019091C1
:101FF0007801019668E671E00E94BA2A9093780110
:1020000080937701CF910895CF92DF92FF920F9343
:102010001F93CF93DF93F82E8091750190917601F5
:102020000E94B11EEF2DE695F0E0EE5CF44FE491D6
:10203000E817190609F0A8F50E94A51E90937601ED
:102040008093750105E612E0D0E0C0E088E6C82E76
:10205000DD24D39480917301909174018C0F9D1FA6
:10206000B6010E94BA2A98014091600260915F0215
:102070000E94120DEC960D5F1F4FC83681E0D80705
:1020800049F70E94A40D8091730190917401F0FEB4
:1020900010C00196BE010E94BA2A909374018093E9
:1020A0007301DF91CF911F910F91FF90DF90CF903F
:1020B00008950197F2CFAF92BF92CF92DF92EF9245
:1020C000FF920F931F93CF93DF93C82FFF24FA94AF
:1020D00080FD02C0FF24F394809171019091720100
:1020E0000E94B11EC695EC2FF0E0E15DF44FE49143
:1020F000E817190611F008F053C00E94A51E90932E
:10210000720180937101C5E6D2E010E000E097E033
:10211000C92ED12C198218821A8287E0A82EB12CE0
:10212000E12C809170018E0D87FD8A5F082E000CD6
:10213000990B08171907E9F4209160022A9DC00144
:102140002B9D900D1124B6010E94CE2A462F80911E
:102150005D02881F8827881F90915E02592F550FB6
:1021600097FB992790F99E0160915F02852B0E9451
:10217000120DEF0C81E0A81AB10899F60F5F1F4FFE
:1021800023960630110531F60E94A40D809170014E
:1021900091E0F91212C081110EC085E080937001A8
:1021A000DF91CF911F910F91FF90EF90DF90CF9033
:1021B000BF90AF9008958150F1CF90E00196B801A3
:1021C0000E94CE2AEBCFBF92CF92DF92EF92FF9286
:1021D0000F931F93CF93DF93CDB7DEB762970FB600
:1021E000F894DEBF0FBECDBF182F80916E01909185
:1021F0006F010E94B11EE12FF0E0E45DF44FE49125
:10220000E817190611F008F07AC00E94A51E9093F5
:102210006F0180936E018E010F5F1F4FF12CE12C37
:102220006801D80111961C9211971C9212961C926B
:10223000B12C9091000180916D01B99E800D112407
:1022400086300CF085E087FD80E0082E000C990BAD
:10225000E816F906A1F480915D02881F8827881F7F
:1022600090915E02592F550F97FB992790F998018D
:102270004091600260915F02852B0E94120DB39421
:10228000B7E0BB12D6CFEFEFEE1AFE0A0D5F1F4F7D
:10229000F6E0EF16F10429F625E632E009E010E059
:1022A00056E0E52EF12CC801B7010E94CE2AFC01B0
:1022B000EE0FFF1FE80FF91FEC0DFD1D8181D90105
:1022C00011968C93119780818C93828112968C93B6
:1022D0000F5F1F4F2D5F3F4F0F30110521F70E94F9
:1022E000A40D9091000180916D019130E1F48A3F3D
:1022F000B4F489EF80936D018FEF809300016296B3
:102300000FB6F894DEBF0FBECDBFDF91CF911F9106
:102310000F91FF90EF90DF90CF90BF900895815084
:1023200080936D01ECCF8D302CF08CE080936D01AB
:1023300081E0E3CF8F5FF4CFCF93DF9380916B0188
:1023400090916C010E94B11E883E934028F10E943A
:10235000A51E90936C0180936B018091690190910F
:102360006A0101968170992790936A0180936901AF
:10237000C5E6D2E09E014091600260915F0290E06C
:1023800080E00E94120D239682E0C737D80791F7AC
:10239000DF91CF910C94A40DDF91CF91089580919E
:1023A0007E01882371F180915D0286958F739EE393
:1023B000980F9F73943018F482500C949F0F9AE3F7
:1023C000980F9F73933018F486500C94D40F97E3B2
:1023D000980F9F73963018F489500C94041091E371
:1023E000980F9F73963018F48F500C945B109BE2FB
:1023F000980F9F73933018F485510C94E3100C944C
:102400009C11089590938501809384010895E09133
:102410008401F0918501309721F00190F081E02D49
:10242000099480E00895E0918401F091850130974E
:1024300021F00280F381E02D09940895E091840158
:10244000F0918501309721F00480F581E02D099409
:10245000089520918201309183012817390771F086
:102460009093830180938201E0918401F091850132
:10247000309721F00680F781E02D0994089520918E
:102480008001309181012817390771F09093810103
:1024900080938001E0918401F0918501309721F0D3
:1024A0000084F185E02D0994089508950C94551247
:1024B0000E949C1E0E94D90B0E946D1F0C943A0F23
:1024C0005F926F927F928F929F92AF92BF92CF92C4
:1024D000DF92EF92FF920F931F93CF93DF93CDB7CD
:1024E000DEB72A970FB6F894DEBF0FBECDBF0E94AD
:1024F000240C97E8A92E91E0B92E10E000E0882482
:102500008394912C502E802F0E94D30C7C01F501D6
:10251000C190D1905F01C816D90609F45EC08091C0
:10252000300281FD0E94DC0C90E080E0CE24DF24AC
:102530003401082E02C0660C771C0A94E2F796015B
:1025400026213721232B09F443C08E835F82E620A6
:10255000F72081E0EF2809F480E088870E94A51E1B
:102560008160782F9A8789874E815F8168858A8507
:102570000E941A13000F111FF801E957FE4F8081C6
:10258000918168267926718260820E94F0210E94E2
:102590000712909186018917B9F10E940712809362
:1025A00086012A960FB6F894DEBF0FBECDBFDF912D
:1025B000CF911F910F91FF90EF90DF90CF90BF9040
:1025C000AF909F908F907F906F905F900C94730965
:1025D00001968E30910509F0ABCF0F5F1F4F06308B
:1025E000110509F08FCF8FEF89838A831B820E94A8
:1025F000A51E8160782F9D838C8349815A816B81D0
:102600008D810E941A13C1CF2A960FB6F894DEBFAF
:102610000FBECDBFDF91CF911F910F91FF90EF9033
:10262000DF90CF90BF90AF909F908F907F906F90F2
:102630005F900895CF93DF93CDB7DEB72B970FB69A
:10264000F894DEBF0FBECDBF4F83588769877A8766
:102650008B871E821D8285E0FE013796DE01119672
:1026600001900D928A95E1F749815A816B817C81B5
:102670008D819E812B960FB6F894DEBF0FBECDBF25
:10268000DF91CF910C949719882309F4D8C0823830
:1026900071F40E94071281FDD2C089E30E94EC1CF4
:1026A0000E94B41D89E30E94291D0C94B41D833837
:1026B00059F40E94071280FDC2C083E50E94EC1C01
:1026C0000E94B41D83E5EFCF843859F40E940712AD
:1026D00082FDB5C087E40E94EC1C0E94B41D87E413
:1026E000E2CF9CEF980F913A18F40E94EC1CDDCFDA
:1026F00090E2980F983050F4877091E001C0990FE4
:102700008A95EAF7892F0E946B1DCFCF9BE5980F22
:10271000933070F4853A31F0863A39F083E890E0EE
:102720000C94291281E890E0FBCF82E890E0F8CF8A
:1027300098E5980F953108F082C0883A09F440C0B6
:10274000893A09F440C08A3A09F440C08B3A09F446
:1027500040C08C3A09F440C08B3B09F440C08C3B2C
:1027600009F440C08D3A09F440C0803B09F440C0F0
:102770008E3A09F440C08F3A09F440C0813B09F415
:1027800040C0823B09F440C0833B09F440C0843B15
:1027900009F440C0853B09F440C0863B09F440C0C1
:1027A000873B09F440C0883B09F440C0893B09F4E9
:1027B00040C08A3B09F440C090E080E00C943F1296
:1027C00082EE90E0FBCF89EE90E0F8CF8AEE90E0C9
:1027D000F5CF85EB90E0F2CF86EB90E0EFCF83EB87
:1027E00090E0ECCF84EB90E0E9CF87EB90E0E6CF90
:1027F0008CEC90E0E3CF8DEC90E0E0CF83E891E0CB
:10280000DDCF8AE891E0DACF82E991E0D7CF84E9A1
:1028100091E0D4CF81E292E0D1CF83E292E0CECFBB
:1028200084E292E0CBCF85E292E0C8CF86E292E0EC
:10283000C5CF87E292E0C2CF8AE292E0BFCF08958F
:10284000882309F44BC0823871F40E94071281FF7B
:1028500045C089E30E94EC1C0E94B41D89E30E94DC
:10286000291D0C94B41D833859F40E94071280FF6F
:1028700035C083E50E94EC1C0E94B41D83E5EFCFB8
:10288000843859F40E94071282FF28C087E40E940E
:10289000EC1C0E94B41D87E4E2CF9CEF980F913AA4
:1028A000F0F290E2980F983050F4877091E001C0F8
:1028B000990F8A95EAF7892F0E94711DD2CF9BE567
:1028C000980F933020F490E080E00C942912885AFD
:1028D000853120F490E080E00C943F120895882325
:1028E00021F00E946B1D0C94B41D0895882321F0E3
:1028F0000E94711D0C94B41D08958F929F92AF9207
:10290000BF92DF92EF92FF920F931F93CF93DF93CB
:102910007C01D62FC72FFC01058102950F70128113
:1029200011110E948A1D0E94E51CD82E882371F087
:10293000112321F180E28D0F883000F182E00E94A6
:10294000CF1C0E94E51C91E0D82ED926EC2FE295F1
:10295000EF70F0E0E255FB4E0C94E22AC014C01474
:102960001015101552156E15ED14ED147915ED14A2
:10297000111611168416ED14ED148D16D12CE6CF18
:102980000C2F0F70C07F11F00295007F1123A9F06A
:10299000002359F080E28D0F883010F0D11109C06A
:1029A000802F0E946B1D0E94B41D8D2F0E94441326
:1029B00014C0802F0E947C1DF6CF8D2F0E94201402
:1029C000002359F080E28D0F883010F0D11124C01F
:1029D000802F0E94711D0E94B41DDD2009F4A4C146
:1029E0000E94C21C80FDA0C1F70112820E94BC1C83
:1029F0000E94361BC7010E94A0160E94BC1CDF91DA
:102A0000CF911F910F91FF90EF90DF90BF90AF900B
:102A10009F908F900C94571B802F0E94821DDBCFBC
:102A2000FC2FFF70BF2EC07FC03219F0B29480EF30
:102A3000B822DD2369F0D13029F1112369F1002397
:102A400059F0F701858180FFB0CF8F70858304C076
:102A5000112361F0011104C08B2D0E946F14BDCFB2
:102A60008B2D0130D1F70E949E1DB7CF011106C0FA
:102A70000E94A11D8B2D0E947614AFCF013009F466
:102A8000ACCFF6CF112321F0063008F0A6CFE4CF6B
:102A9000053008F0A2CFEECF002361F38D2F0E9406
:102AA00020149BCF8C2F86958695837069F081309A
:102AB00009F093CF8D2F9C2F9370111102C090E0DD
:102AC00080E00E943F1289CF8D2F9C2F93701111AF
:102AD00002C090E080E00E9429127FCF8D2F112349
:102AE00029F00E94F9200E94E52177CF0E94612100
:102AF000FACF8C2F837009F047C011116ECF2D2FA4
:102B0000229526952770220F220F6D2F6F70862E2B
:102B1000912CB12CA12C022E04C0880C991CAA1C4B
:102B2000BB1C0A94D2F760E070E0CB01D4FF0FC069
:102B30006FE070E080E090E004C0660F771F881FB0
:102B4000991F2A95D2F76095709580959095C695B6
:102B5000C695C370C23051F080F4682979298A295A
:102B60009B29C13071F00E94DF1A37CF682979297B
:102B70008A299B290E94FB1A30CF0E94DF1AC501C7
:102B8000B4010E94C31A29CF8695112311F08C2F0E
:102B90008170882309F421CF2D2F22952695277047
:102BA000220F220F6D2F6F70862E912CB12CA12C2D
:102BB000022E04C0880C991CAA1CBB1C0A94D2F7D4
:102BC00060E070E0CB01D4FF0FC06FE070E080E008
:102BD00090E004C0660F771F881F991F2A95D2F7CF
:102BE0006095709580959095C695C695C370C230D6
:102BF00051F080F4682979298A299B29C13071F024
:102C00000E94B91BEACE682979298A299B290E944A
:102C1000D51BE3CE0E94B91BC501B4010E949D1BC8
:102C2000DCCEE0E2ED0FE53108F062C0F0E0E55EF9
:102C3000F94E0C94E22A3016301630163016301643
:102C40003016301630163016301630163016301654
:102C50003016301630163D164B165216591663169E
:102C6000DF708C2F8F71112321F00E94361B8D2F66
:102C7000F4CE0E94571B8D2FFECE112341F005305C
:102C800008F0ABCE8C2F8F710E947C1BA6CE063035
:102C900008F0A3CEF7CF8C2F8F71112339F00E944B
:102CA000361B9BCE8C2F8F711123C9F30E94571BAB
:102CB00094CE112329F08C2F8F710E94211B8DCE71
:102CC0000E94171B8ACE112349F0CF718C2F0E94CE
:102CD000361B63E08C2F0E94C61C7FCE81E00E94D1
:102CE000CF1C023008F479CE82E00E94CF1C75CE52
:102CF000112329F0011159CE8C2F8F71D0CF0111E2
:102D0000CDCE8C2F8F71D2CF4C2F4F706D2FC7012E
:102D10000E94BB070E94401A60CE4C2F4F706D2F4F
:102D2000C7010E94750959CEDF91CF911F910F9174
:102D3000FF90EF90DF90BF90AF909F908F9008959D
:102D40000F931F93CF93DF93EC01988189812B819F
:102D50003C81232B39F08F3F19F481E09F3F19F01C
:102D600080E001C081E080FD17C0CE010E94DA073B
:102D7000882391F0688179818A810E94981C8C0156
:102D80000E94F11B0E94B81AB801CE01DF91CF91C9
:102D90001F910F910C947D14DF91CF911F910F9192
:102DA00008950E948A1D0E949B1D0E945D1D0E9425
:102DB000B41D0E9492220E94E52190E080E00E94D2
:102DC000291290E080E00C943F120E94791D0C942F
:102DD000D1160E948E1CE92FE295EF70E250EE3082
:102DE000E0F4F0E0EA50F94E0C94E22A04170417DC
:102DF0000D170D170F170D170D170D1704170417C3
:102E000014170D170D171417803F19F020F4803E8A
:102E100020F481E00895843FE1F380E00895803E4E
:102E2000C0F3813FD1F7F5CF93FB882780F9089550
:102E3000CF93DF9300D000D01F92CDB7DEB70F90B5
:102E40000F900F900F900F90DF91CF910895CF9337
:102E5000DF9300D000D000D0CDB7DEB726960FB6F6
:102E6000F894DEBF0FBECDBFDF91CF9108951F93C1
:102E7000CF93DF93C091940116E0809195018C135C
:102E800004C0DF91CF911F910895D0E01C9FF00105
:102E90001D9FF00D1124EA56FE4F40815181628141
:102EA0007381848195810E9427172196C770E5CF91
:102EB0004091C6015091C7016091C8017091C9014C
:102EC0008091CA019091CB010C9427171F93CF9347
:102ED000DF938091CB01807FD1F48091C80188235A
:102EE000B1F080919401D0919501B091C601C0914B
:102EF000C7014091C9015091CA01A1E0BF3F09F04B
:102F0000A0E0BA016095709516E0D81304C0DF9177
:102F1000CF911F91089521E04115510521F02A2FED
:102F2000CF3F09F020E090E020FD38C0189FF0016D
:102F3000199FF00D1124EA56FE4F21812C132EC04B
:102F400020812B132BC02281211128C023813481A1
:102F50002417350700F1241B350B283C3105F0F40C
:102F60002091CB012F7020612093CB0126E0289F78
:102F7000F001299FF00D1124E556FE4F80818F70DE
:102F80008061808386EC91E00E94A016DF91CF9152
:102F90001F910C943717260F371FDFCF01968770CC
:102FA000B4CFAF92BF92CF92DF92EF92FF920F9386
:102FB0001F93CF93DF93CDB7DEB761970FB6F89429
:102FC000DEBF0FBECDBF8C0185E0F801DE011D968E
:102FD00001900D928A95E1F7D8014C9111965C9180
:102FE00011971296EC903091C6016091C7018091C3
:102FF000C9019091CA0121E0009731F06F3F19F4A7
:1030000021E03F3F09F020E0B22FB170BB2E20FD40
:1030100080C1F801C380D480A090C801AA2009F41F
:1030200027C1C816D906D0F1D601A81BB90BCD010E
:10303000FF24F394883C910508F0F12C8091CB019A
:10304000982F907FFF2009F4CAC0911187C0FE2CF1
:10305000651329C0341327C0E11025C08F7080612B
:103060008093CB010E94581786EC91E00E94A01635
:103070008091CB01F80185838F2D61960FB6F8946E
:10308000DEBF0FBECDBFDF91CF911F910F91FF909B
:10309000EF90DF90CF90BF90AF900895809590957E
:1030A0008C0D9D1DC5CF81E0CD2831F05F3F19F417
:1030B00081E04F3F09F080E080FD24C081E08E2553
:1030C000F82FF170DF2E80FF3FC080919401209196
:1030D000950136E0821318C04D875E878D859E85E9
:1030E0000E948E1C292F22952F70223008F1243047
:1030F00030F59F7009F1D80115969C91907FE1F40D
:10310000FB2CBACF80E0DCCF90E0389FF001399FF4
:10311000F00D1124EA56FE4F6181561306C06081FE
:10312000461303C062816E110FC001968770D2CF23
:103130009F7011F0882321F3805E883008F3C80166
:103140000E94A016BD2CDCCFEE2009F495CF809113
:10315000CB0181608093CB01F12C8ECF651312C01F
:10316000341310C0E1100EC0F8018583C8010E941D
:10317000A01686E0F801A6ECB1E001900D928A95C8
:10318000E1F741C04D875E878D859E850E94E916D7
:10319000882309F4C8C0EE2009F4C5C08091CB0192
:1031A000803270F02091C6013091C70138872F839B
:1031B0001986DB86CA868C87CE0107960E94A016E8
:1031C00086E0F801A6ECB1E001900D928A95E1F756
:1031D0000E9466170E945817FF24F3944DCF911157
:1031E00015C07C2DD98AC88A6E2D89890E9418172E
:1031F00086EC91E00E94A01686E0E6ECF1E0DF01AB
:103200001D928A95E9F70E94581736CF651312C0B0
:10321000341310C0E1100EC0F8018583C8010E946C
:10322000A016E6ECF1E086E0DF011D928A95E9F751
:10323000FA2C22CF4D875E878D859E850E94E916E8
:10324000882309F470C0EE2009F46DC08091CB0191
:10325000803208F4B5CF2091C6013091C7013A837E
:1032600029831B82DD82CC828E83CE010196A6CF7C
:10327000C816D90638F1F601E81BF90BCF01F12C7D
:10328000883C910508F03DC0FE2CEE2009F44BC0AF
:10329000651326C0341324C08091CB0180FD17C074
:1032A000982F907FA1F0D80115968C931597903F99
:1032B00009F45CCF982F907F905F8F70892B1596C3
:1032C0008C9354CF809590958C0D9D1DD8CF86E022
:1032D000F801A6ECB1E001900D928A95E1F7CCCE11
:1032E0004D875E878D859E850E94E916811168CF86
:1032F0008091CB0181608093CB01C8010E94A01610
:10330000BBCE7C2DD98AC88A6E2D89890E94181758
:1033100073CFEE2041F04D875E878D859E850E949C
:10332000E91681114DCFC8010E94A01655CF1F93F9
:10333000CF93DF93CDB7DEB72C970FB6F894DEBFEF
:103340000FBECDBF4F83588769877A878B879C874D
:10335000CE0107960E94D117882309F442C09F81AD
:1033600088852A853B85232B39F08F3F19F481E02E
:103370009F3F19F080E001C081E080FD08C04F81CF
:10338000588569857A858B859C850E94271716E06C
:103390008091940190919501891709F467C0819FEC
:1033A000C00111248A569E4F0E94D117882309F428
:1033B0005DC0E09194011E9FF0011124EA56FE4F7A
:1033C0004081518162817381848195810E94271798
:1033D0008091940190E001968770992780939401E1
:1033E000D7CF86E0FE013796DE01119601900D924F
:1033F0008A95E1F79F8188852A853B85232B39F0C3
:103400008F3F19F481E09F3F19F080E001C081E017
:1034100080FDBDCF2091950130E0C90101968770F4
:103420009927409194014817190699F096E0929FC8
:10343000D001939FB00D1124AA56BE4FFE013196C4
:1034400001900D929A95E1F7809395010E943717AC
:103450009ECF0E94E516109295011092940186E08D
:10346000E6ECF1E0DF011D928A95E9F72C960FB6A4
:10347000F894DEBF0FBECDBFDF91CF911F910895AD
:10348000EF92FF920F931F93CF93DF938C01892BC1
:1034900081F0F12CEE24E394E8012196F801849167
:1034A000843770F4843008F05FC08130B1F082302E
:1034B000A1F1DF91CF911F910F91FF90EF900895AF
:1034C000853709F44CC008F43DC09CE7980F90374D
:1034D00080F78F770E94201449C00E5F1F4FFE01B6
:1034E000849190E2980F983060F48770FE2D01C0AF
:1034F000FF0F8A95EAF78F2F0E948D1D0E94B41D41
:1035000002C00E9444138F2D815030F2EFE9FFE09A
:103510003197F1F700C00000F7CF0E5F1F4FFE019B
:10352000849190E2980F983050F48770FE2D01C07E
:10353000FF0F8A95EAF78F2F0E94931DDFCF0E941D
:103540002014E1CF0E5F1F4FFE01C491C150D8F28D
:103550008FE99FE00197F1F700C00000F7CF0E5F01
:103560001F4FFE01F490CFCF0E9444138E01CBCFAA
:103570000895609307027093080280930902909364
:103580000A020C94D1160F931F9300910702109119
:1035900008022091090230910A02DC01CB01802B44
:1035A000912BA22BB32B8093070290930802A09338
:1035B0000902B0930A021F910F910C94D1160F9338
:1035C0001F93009107021091080220910902309187
:1035D0000A02DC01CB0180239123A223B323809331
:1035E000070290930802A0930902B0930A021F9168
:1035F0000F910C94D1160F931F9300910702109115
:1036000008022091090230910A02DC01CB018027D7
:103610009127A227B3278093070290930802A093D3
:103620000902B0930A021F910F910C94D1161092C7
:1036300003021092040210920502109206020C94EA
:10364000D11641E050E060E070E004C0440F551F27
:10365000661F771F8A95D2F74093030250930402A6
:1036600060930502709306020C94D11641E050E07D
:1036700060E070E004C0440F551F661F771F8A95F5
:10368000D2F78091030290910402A0910502B091BB
:103690000602842B952BA62BB72B809303029093C5
:1036A0000402A0930502B09306020C94D11641E0E7
:1036B00050E060E070E004C0440F551F661F771FA4
:1036C0008A95D2F740955095609570958091030248
:1036D00090910402A0910502B091060284239523E3
:1036E000A623B7238093030290930402A0930502BC
:1036F000B09306020C94D11641E050E060E070E017
:1037000004C0440F551F661F771F8A95D2F780911A
:10371000030290910402A0910502B0910602842751
:103720009527A627B7278093030290930402A093BE
:103730000502B09306020C94D1160F931F930091CB
:103740000302109104022091050230910602DC016F
:10375000CB01802B912BA22BB32B80930302909350
:103760000402A0930502B09306021F910F910C94DE
:10377000D1160F931F930091030210910402209120
:10378000050230910602DC01CB0180239123A223A4
:10379000B3238093030290930402A0930502B09395
:1037A00006021F910F910C94D1160F931F93009155
:1037B0000302109104022091050230910602DC01FF
:1037C000CB0180279127A227B327809303029093F0
:1037D0000402A0930502B09306021F910F910C946E
:1037E000D11608952EE0929F800D1124982F977086
:1037F00071E001C0770F9A95EAF7869586958695D0
:1038000025E0829FC001112450E040E0A62FB0E0E7
:10381000FC01E40FF51FE453FE4F60819D01042E6F
:1038200002C0369527950A94E2F721702195262744
:103830002723262720834F5F5F4F4530510541F7EF
:1038400008952EE0929F800D1124982F97708695F1
:103850008695869525E0829FA001112470E060E0A6
:1038600080E0FA01E60FF71FE453FE4F208130E0BD
:10387000092E02C0369527950A94E2F72170332766
:10388000062E01C0220F0A94EAF7822B6F5F7F4F4A
:103890006530710531F70895BF92CF92DF92EF92B4
:1038A000FF920F931F93CF93DF938C01C09003027D
:1038B000D0900402E0900502F09006028091070289
:1038C00090910802A0910902B0910A02C82AD92A4F
:1038D000EA2AFB2ACFE1D0E0BC2ED701C6010C2E8C
:1038E00004C0B695A795979587950A94D2F780FD61
:1038F0000EC0219788F7B12C8B2DDF91CF911F91AE
:103900000F91FF90EF90DF90CF90BF900895B80196
:103910008C2F0E949209019761F3EECFCF93DF9332
:10392000EC010E944C1CBE01DF91CF910C949209D6
:103930001F93CF93DF93EB0190919301992331F083
:10394000CB01DF91CF911F910C948E1C882379F0CD
:10395000CB010E944C1C182F682FCE010E94F21B35
:10396000BE01812FDF91CF911F910C949209CB0161
:103970000E94211C182FF4CF80910B02859585950C
:103980008595089580910B028770089598E0899F2E
:1039900090011124622B60930B020C94361B9091C2
:1039A0000B028095892380930B02282F277061F4E6
:1039B000282F082E000C330B9217130629F085953B
:1039C000859585950C94571B089590910B029770DF
:1039D00081E009F480E00895909113019923E1F0CA
:1039E00090917B0297FF18C0E82FE695E695E69543
:1039F000EF3139F12091010130910201E20FF32FF3
:103A0000F11D877021E030E001C0220F8A95EAF7AE
:103A10008181822B818308952091010130910201DF
:103A2000F90132969FEF40E05191851751F09F3F89
:103A300019F4511101C0942F4F5F4E31A9F79F3FE8
:103A400009F40895290F311D97FD3A95F9018283F4
:103A50000895909113019923F1F090917B0297FFC3
:103A60001AC0E82FE695E695E695EF3129F1209109
:103A7000010130910201E20FF32FF11D282F277071
:103A800081E090E001C0880F2A95EAF78095918146
:103A90008923818308952091010130910201F90168
:103AA0003296205E3F4F9191891303C0DF01119739
:103AB0001C92E217F307B9F7089581E090E0E091D6
:103AC0000101F0910201E80FF91F10820196803286
:103AD0009105A9F7089590912F02892B80932F02C9
:103AE0000895982F909580912F02892380932F021B
:103AF000089510922F02089590912E02892B8093A1
:103B00002E020895982F909580912E0289238093FC
:103B10002E02089510922E02089590912D02892B65
:103B200080932D020895982F909580912D028923DE
:103B300080932D02089510922D02089580930C0217
:103B4000089510920C020895209101013091020114
:103B5000F9013196205E3F4F80E0919191118F5F86
:103B6000E217F307D1F70895E0910101F091020106
:103B700080912F028083E0910101F0910201808108
:103B800090912E02892B8083E0910101F091020136
:103B9000808190912D02892B808390910C02992332
:103BA00061F0E0910101F09102018081892B808315
:103BB0000E94A41D811110920C028091010190912C
:103BC00002010C9413126DEE7EEF90E080E00E94F3
:103BD0001A2B60E082E090E00E94FC2A60E083E023
:103BE00090E00E94FC2A60E084E090E00E94FC2AC1
:103BF00060E085E090E00E94FC2A40E050E0BA01DD
:103C000088E090E00C940E2B90E080E00E94F62A71
:103C100021E08D3E9E4F09F020E0822F089582E042
:103C200090E00C94E82A682F82E090E00C94FC2A43
:103C300083E090E00C94E82A682F83E090E00C94F5
:103C4000FC2A84E090E00C94E82A682F84E090E05D
:103C50000C94FC2A80918102843039F11092310257
:103C600088E190E020E40FB6F894A8958093600076
:103C70000FBE2093600080E00E94730983B7817FAC
:103C8000846083BF83B7816083BF7894889583B74E
:103C90008E7F83BF0FB6F894A895809160008861ED
:103CA00080936000109260000FBE089508950895FB
:103CB000CF930E94561E0E94240C0E94571EC0E003
:103CC0008C2F0E94D30C892B31F4CF5FC630C1F703
:103CD00080E0CF91089581E0FCCF0E94E5160E941C
:103CE00007120C9473091F920F920FB60F921124B2
:103CF0008F939F93AF93BF9380913102811113C033
:103D00008091770290917802A0917902B0917A0225
:103D10004196A11DB11D8093770290937802A093E4
:103D20007902B0937A02BF91AF919F918F910F90DA
:103D30000FBE0F901F90189582E084BD93E095BD53
:103D40009AEF97BD80936E0008952FB7F8948091F5
:103D5000770290917802A0917902B0917A022FBFF8
:103D60000895CF92DF92EF92FF920F931F932FB798
:103D7000F8944091770250917802609179027091A5
:103D80007A022FBF6A017B01EE24FF248C0130E010
:103D900020E0C016D106E206F30650F0481B590B8E
:103DA000CA011F910F91FF90EF90DF90CF9008957F
:103DB00041505109F3CF1F920F920FB60F92112469
:103DC0008F939F93AF93BF938091770290917802E6
:103DD000A0917902B0917A020196A11DB11D809344
:103DE000770290937802A0937902B0937A02BF9100
:103DF000AF919F918F910F900FBE0F901F901895CC
:103E00000E948E26F8942FEF87EA91E62150804099
:103E10009040E1F700C0000087E090EBDC01809368
:103E20008A0290938B02A0938C02B0938D0288E15A
:103E30009CE00FB6F894A895809360000FBE909315
:103E40006000FFCFAF92BF92CF92DF92EF92FF92CE
:103E50000F931F93CF93C0E0CC24C394D12CE82EB2
:103E6000F12C8C2F0E94D30C5C0110E000E0C60105
:103E7000002E02C0880F991F0A94E2F78A219B2125
:103E8000892B99F40F5F1F4F0E30110581F7CF5F1B
:103E9000C63039F780E0CF911F910F91FF90EF90DE
:103EA000DF90CF90BF90AF900895602F7C2F80E07F
:103EB0000E947609E816F90629F781E0ECCFCF9346
:103EC000C82F8CE20E94221F882321F08C2FCF91D3
:103ED0000C94221F80E0CF910895CF930E94041E7E
:103EE000811102C00E94E31DC5E608C00E94240C97
:103EF0008FE39CE90197F1F700C00000C150B1F7D2
:103F000089E20E945F1F8111EFC08AE20E945F1F59
:103F100081110E94E31D85E00E945F1F81110E94B4
:103F2000001F0E940F1E8093300287E00E945F1FD7
:103F3000882371F08BE10E945F1F882309F4B1C0D0
:103F400090913002892F8D7F91FF826080933002A3
:103F5000809130020E94131E0E94211E90E09093D7
:103F60007C0280937B0280EE0E945F1F882341F0D9
:103F700090917B02892F8E7F90FF816080937B02DE
:103F800089E30E945F1F882341F090917B02892F73
:103F90008D7F91FF826080937B0282EE0E945F1F83
:103FA000882341F090917B02892F8B7F92FF846060
:103FB00080937B0286EE0E945F1F882341F09091E0
:103FC0007B02892F877F93FF886080937B0283EE3B
:103FD0000E945F1F882341F090917B02892F8F7E82
:103FE00094FF806180937B0285E30E945F1F88239A
:103FF00041F090917B02892F8F7D95FF80628093A5
:104000007B0281E30E945F1F882341F090917B0235
:10401000892F8F7B96FF806480937B0281E10E94D1
:104020005F1F882341F090917B02892F97FB87F9CE
:10403000805880937B0280917B020E94251E87E23C
:104040000E945F1FC82F8EE10E945F1F8111C26016
:104050008FE10E945F1F8111C46080E20E945F1F98
:104060008111C86081E20E945F1F8111C06182E2FC
:104070000E945F1F8111C06283E20E945F1F811155
:10408000C06484E20E945F1F882341F1C0688C2FC6
:104090000E941C1E6C2F70E090E080E0CF910C9489
:1040A000B91A8EE00E945F1F882339F09091300288
:1040B000892F8B7F92FF846049CF80E10E945F1F30
:1040C00090913002882329F0892F877F93FF8860A1
:1040D0003DCF892F8E7F90FF816038CFC111D7CF20
:1040E0000E94181E682FD7CFCF9108958091340277
:1040F00080FF12C06091060185E0689FB001112425
:10410000759567957595679560387105A8F5611582
:104110007105A1F1862F089581FF09C06091060104
:1041200085E0689FB001112475956795EDCF82FFFA
:1041300007C06091060185E0689FB0011124E4CFBB
:10414000209135022223A9F090910501609106018A
:1041500085E0689FB00111242917B0F6269FA001C1
:10416000279F500D1124692F70E0CA010E94CE2AAA
:10417000CBCF65E070E0CECF8FE7089581E0089562
:104180008091340280FF0CC06091040170E075954D
:104190006795759567956115710549F1862F0895A5
:1041A00081FF06C06091040170E075956795F3CFBB
:1041B0006091040182FD0BC0909135029923A1F01A
:1041C0006091030180910401961738F0682F70E028
:1041D0006038710500F38FE70895899FC0011124AD
:1041E00070E00E94CE2AF4CF61E070E0D7CF81E08A
:1041F0000895803F31F40E947620819580933802A3
:104200000895813F19F40E947620F8CF823F31F45F
:104210000E9476208195809337020895833F19F498
:104220000E947620F8CF893F29F40E94C020809315
:10423000390208958A3F21F40E94C0208195F7CF6A
:104240008B3F31F40E94C020819580933A020895FB
:104250008C3F19F40E94C020F8CF843F31F4809144
:1042600036028160809336020895853F21F4809163
:1042700036028260F7CF863F21F480913602846057
:10428000F1CF873F21F4809136028860EBCF883FE1
:1042900021F4809136028061E5CF8D3F31F4809129
:1042A000340281608093340208958E3F21F480911E
:1042B00034028260F7CF8F3FB9F780913402846077
:1042C000F1CF803FC1F48091380287FD109238020F
:1042D0008091370281110EC08091380281110AC08D
:1042E00080913902811106C080913A02811102C089
:1042F000109235020895813F29F4809138021816F2
:104300002CF3E6CF90913702823F29F497FFE0CF5C
:1043100010923702DDCF833F19F41916CCF3D8CFB2
:10432000893F39F480913902181694F610923902B7
:10433000CFCF8A3F29F48091390287FFC9CFF6CFCA
:104340008B3F39F480913A0287FFC2CF10923A0234
:10435000BFCF8C3F29F480913A021816BCF3B8CF36
:10436000843F31F4809136028E7F80933602B0CF45
:10437000853F21F4809136028D7FF7CF863F21F46F
:10438000809136028B7FF1CF873F21F480913602F6
:10439000877FEBCF883F21F4809136028F7EE5CF77
:1043A0008D3F31F4809134028E7F8093340290CF20
:1043B0008E3F21F4809134028D7FF7CF8F3F09F03B
:1043C00087CF809134028B7FF0CF86E392E00E940A
:1043D0001E120E94A51E909333028093320208950C
:1043E0001F93CF93DF9380913202909133020E940A
:1043F000B11EAC01909135022091070130E091117E
:1044000006C0209108018AE0289F900111244217DC
:10441000530780F080913702C09138021091390221
:10442000D0913A0281110AC0C11178C0111176C031
:10443000D11174C0DF91CF911F9108959F3F19F062
:104440009F5F90933502181624F40E947620809383
:1044500037028091370287FF05C00E947620819540
:10446000809337021C1624F40E9476208093380231
:104470008091380287FF05C00E9476208195809345
:10448000380260913702662331F1C0913802CC23A3
:1044900011F1062E000C770B880B990B0E94C12995
:1044A00023E333E343E35FE30E94252A0E94892943
:1044B000609337026C2FCC0F770B880B990B0E94FF
:1044C000C12923E333E343E35FE30E94252A0E94EB
:1044D000892960933802111624F40E94C020809329
:1044E00039028091390287FF05C00E94C020819562
:1044F000809339021D1624F40E94C02080933A0252
:1045000080913A0287FF05C00E94C0208195809368
:104510003A02DF91CF911F910C94E5219F3F09F062
:104520008FCFA0CF85E0E6E3F2E0DF011D928A9510
:10453000E9F71092350210923402089580915B02DF
:104540000895CF93DF9300D01F92CDB7DEB79C01C3
:1045500080918102843019F593E099833B832A830B
:104560009093E9008FEF9091E800815095FD06C08F
:1045700095ED9A95F1F700008111F5CF8091E80053
:1045800085FF0DC050E040E063E070E0CE01019691
:104590000E94FE248091E8008E778093E8000F90BF
:1045A0000F900F90DF91CF910895CF93DF9300D0BC
:1045B0001F92CDB7DEB720918102243031F522E081
:1045C0002983805891099B838A8383E08093E90043
:1045D0008FEF9091E800815095FD06C095ED9A957A
:1045E000F1F700008111F5CF8091E80085FF0DC043
:1045F00050E040E063E070E0CE0101960E94FE24AE
:104600008091E8008E778093E8000F900F900F90D4
:10461000DF91CF9108959C01809181028430F9F45B
:1046200082E08093E9009FEF8091E800915085FD42
:1046300006C085ED8A95F1F700009111F5CF8091C4
:10464000E80085FF0CC050E040E065E070E0C90183
:104650000E94FE248091E8008E778093E800089500
:10466000CF93DF93EC01809181028430F1F490913B
:1046700013019923E9F090917B0297FF19C0809371
:10468000E9008FEF9091E800815095FD06C095E11B
:104690009A95F1F700008111F5CF8091E80050E084
:1046A00040E060E270E085FD1AC0DF91CF9108958F
:1046B00081E08093E9008FEF9091E800815095FDB3
:1046C00006C095ED9A95F1F700008111F5CF809124
:1046D000E80085FFEACF50E040E068E070E0CE01FE
:1046E0000E94FE248091E8008E778093E80080E2AB
:1046F000FE01ABE3B2E001900D928A95E1F7D5CFD0
:1047000080918002811109C00E948E260E94EB26B2
:104710008091E20084608093E2000895109280020C
:104720000895089508950C946D1E42E061EC81E0B7
:104730000E940C2642E061EC82E00E940C2642E0DE
:1047400061EC83E00E940C2642E261EC84E00C9470
:104750000C2680918302833009F455C030F48130F7
:1047600071F1823009F491C008958A3009F47DC056
:104770008B3009F463C0893009F044C08091820213
:10478000813209F03FC080918602909187020097A4
:1047900011F00397B9F58091E800877F8093E800D6
:1047A0008091E80082FF2AC08091F10080935B0233
:1047B0008091E8008B778093E8000C9440268091EC
:1047C0008202813AF9F48091E800877F8093E800C3
:1047D0008091860290918702892B61F460E28BE3DD
:1047E00092E070E00E944D258091E8008B778093E5
:1047F000E800089560E090E080E0F3CF80918102CE
:104800008111CECF089580918202813AD9F78091AB
:10481000860290918702892BA9F78091E800877F13
:104820008093E8008091E80080FFFCCF8091130125
:104830008093F1008091E8008E77BDCF8091820255
:10484000813201F78091860290918702892BD1F6FF
:104850008091E800877F8093E8000E944026809145
:104860008402809313010C94E516809182028132B8
:1048700049F68091E800877F8093E8000E944026F7
:104880008091850280935C02089580918202813A32
:1048900009F0B8CF8091E800877F8093E80080918D
:1048A000E80080FFFCCF80915C02C2CF84B7877F95
:1048B00084BF0FB6F894A8958091600088618093BA
:1048C0006000109260000FBE80E88093610010923B
:1048D00061000E9456120E948E260E94EB26809153
:1048E000E20084608093E20078940E946D290E9427
:1048F000581289E091E00E94021280918102853075
:1049000029F00E9460120E94CF11F7CF0E942A1E48
:1049100080917F02882389F30E94581E882369F3BF
:104920000E94E824EACF292F33272330310579F17B
:1049300058F421303105F1F02230310519F190E0C1
:1049400080E030E020E01AC02132310599F12232B6
:104950003105A9F7643098F770E0FB01EE0FFF1FF7
:10496000E45DFE4F20813181685D7E4FFB018081D7
:1049700090E004C082E190E026ED3DE0FA01318351
:10498000208308958DE690E029E63DE0F7CF992752
:104990008130910561F028F0029789F6E9E3FDE0A6
:1049A00002C0E5E6FDE0849190E09F01E7CFEDE4F1
:1049B000FDE0F9CF643008F0C2CFE62FF0E0EE0F53
:1049C000FF1FEC5CFE4F2081318189E090E0D6CF63
:1049D00080E189BD82E189BD09B400FEFDCF8091EF
:1049E000D8008F7D8093D8008091E0008260809312
:1049F000E0008091E00081FDFCCF0895AF92BF926E
:104A0000CF92DF92FF920F931F93CF93DF936C01AE
:104A1000EB018A010E945F26F82E811123C0011547
:104A2000110539F0F80180819181C81BD90BC80E9E
:104A3000D91EB12CA12C2097A9F08091E80085FD0A
:104A400022C08091E8008E778093E800011511055F
:104A5000A1F0F80180819181A80EB91EB182A082D7
:104A600085E0F82E8F2DDF91CF911F910F91FF9050
:104A7000DF90CF90BF90AF9008950E945F2688236B
:104A8000D1F2F82EEFCFF60181916F018093F10002
:104A90002197FFEFAF1ABF0ACECFFC0180918802A9
:104AA0009091890286179707A0F06115710529F486
:104AB0009091E8009E779093E80090E06115710571
:104AC00051F4911108C08091E80082FF35C080E068
:104AD0000895BC01F2CF809181028823C9F185300D
:104AE000C9F18091E80083FD31C08091E80082FD2A
:104AF000EACF8091E80080FFE1CF2091F300809120
:104B0000F200322F282F6115710519F02830310578
:104B100058F091E02830310509F090E02091E8004C
:104B20002E772093E800CACF81918093F1006150E5
:104B300071092F5F3F4FE7CF80918102882341F0B9
:104B4000853041F08091E80083FFBDCF81E008957A
:104B500082E0089583E00895FC018091880290919D
:104B6000890286179707A0F06115710529F48091D5
:104B7000E8008E778093E80090E06115710551F4AC
:104B8000911108C08091E80082FF36C080E008954E
:104B9000BC01F2CF809181028823D1F18530D1F11F
:104BA0008091E80083FD32C08091E80082FDEACF69
:104BB0008091E80080FFE1CF2091F3008091F20026
:104BC000322F282F6115710519F02830310558F062
:104BD00091E02830310509F090E08091E8008E776F
:104BE0008093E800CACF84918093F10031966150A0
:104BF00071092F5F3F4FE6CF80918102882341F0FA
:104C0000853041F08091E80083FFBCCF81E00895BA
:104C100082E0089583E00895982F973028F08F70F0
:104C20008093E90081E008959093E900242F762F86
:104C300050E0981731F07091EC002091ED00509108
:104C4000F00021FD02C09F5FE8CF3091EB003E7F76
:104C50003093EB003091ED003D7F3093ED003091CB
:104C6000EB0031603093EB007093EC002093ED008B
:104C70005093F0002091EE0027FDE5CF80E00895ED
:104C80008091820287FF13C08091E80082FF06C0F6
:104C90008091E8008B778093E80004C080918102C6
:104CA0008111F2CF0895809181028823D9F38091F8
:104CB000E80080FFF8CF8091E8008E77ECCF20915C
:104CC000E4003091E50085E69091EC0090FF06C08D
:104CD0009091E80090FF06C080E008959091E80070
:104CE00092FDFACF90918102992391F0953091F045
:104CF0009091EB0095FD10C04091E4005091E500CB
:104D00002417350709F381509A01F1F684E00895DC
:104D100082E0089583E0089581E008950E94FC26D2
:104D20000E940427E0EEF0E0808181608083E8ED5E
:104D3000F0E080818F77808319BCA7EDB0E08C9183
:104D40008E7F8C9380818F7E808310928002089565
:104D50000F931F93CF93DF930E94FC260E9404279A
:104D6000C8EDD0E088818F778883888180688883C8
:104D700088818F7D888319BC1092810210927D02F8
:104D800010927F0210927E0200EE10E0F801808106
:104D90008B7F808388818160888342E060E080E04F
:104DA0000E940C26E1EEF0E080818E7F8083E2EEAF
:104DB000F0E0808181608083808188608083F80159
:104DC00080818E7F8083888180618883DF91CF910D
:104DD0001F910F910895E8EDF0E080818F7E808330
:104DE000E7EDF0E080818160808384E082BF81E034
:104DF000809380020C94A826E8EDF0E080818E7FFD
:104E000080831092E20008951092DA001092E1007F
:104E100008951F920F920FB60F9211242F933F9374
:104E20004F935F936F937F938F939F93AF93BF93B2
:104E3000EF93FF938091E10082FF0BC08091E2002D
:104E400082FF07C08091E1008B7F8093E1000E9488
:104E50006C298091DA0080FF19C08091D80080FF12
:104E600015C08091DA008E7F8093DA008091D9009E
:104E700080FF94C080E189BD82E189BD09B400FE54
:104E8000FDCF81E0809381020E9480238091E10028
:104E900080FF19C08091E20080FF15C08091E20080
:104EA0008E7F8093E2008091E20080618093E20037
:104EB0008091D80080628093D80019BC85E08093EF
:104EC00081020E9492238091E10084FF29C0809199
:104ED000E20084FF25C080E189BD82E189BD09B47B
:104EE00000FEFDCF8091D8008F7D8093D800809107
:104EF000E1008F7E8093E1008091E2008F7E8093BD
:104F0000E2008091E20081608093E20080917D0266
:104F1000882309F449C084E0809381020E9493238E
:104F20008091E10083FF29C08091E20083FF25C0CA
:104F30008091E100877F8093E10082E0809381028D
:104F400010927D028091E1008E7F8093E10080913C
:104F5000E2008E7F8093E2008091E2008061809386
:104F6000E20042E060E080E00E940C268091F000C8
:104F700088608093F0000E949123FF91EF91BF9190
:104F8000AF919F918F917F916F915F914F913F91E1
:104F90002F910F900FBE0F901F90189519BC109273
:104FA00081020E948E2372CF8091E30087FD02C0B0
:104FB00081E0B2CF83E0B0CF1F920F920FB60F9275
:104FC00011242F933F934F935F936F937F938F930E
:104FD0009F93AF93BF93CF93EF93FF93C091E9005B
:104FE000CF708091EC001092E9008091F000877FF3
:104FF0008093F00078940E9418281092E900809124
:10500000F00088608093F000C093E900FF91EF9179
:10501000CF91BF91AF919F918F917F916F915F9150
:105020004F913F912F910F900FBE0F901F901895A9
:105030001F93CF93DF93CDB7DEB7AA970FB6F8943F
:10504000DEBF0FBECDBFE2E8F2E08091F1008193B8
:1050500022E0EA38F207C9F70E94A9238091E8000C
:1050600083FF42C080918202909183029A3008F0BF
:105070003BC0E92FF0E0E15CF74D0C94E22A4928AF
:105080006D2874286D287428C828EA2874283F29B8
:105090004C29803879F0823839F5809186028F70FA
:1050A0008093E9008091EB0085FB882780F91092BE
:1050B000E90006C080917E0290917F02911182608A
:1050C0009091E800977F9093E8008093F100109210
:1050D000F1008091E8008E772DC0282F2D7F21F4DC
:1050E0008823D1F0823059F18091E80083FF0AC013
:1050F0008091E800877F8093E8008091EB008062D8
:105100008093EB00AA960FB6F894DEBF0FBECDBF1A
:10511000DF91CF911F91089580918402813021F712
:10512000933009F080E080937F021092E900809133
:10513000E800877F8093E8000E944026D5CF8091C9
:1051400084028111F2CF809186028F7069F2809380
:10515000E9002091EB0020FFE8CF933031F48091FB
:10516000EB0080628093EB00E0CF9091EB009061C8
:105170009093EB0021E030E001C0220F8A95EAF71E
:105180002093EA001092EA008091EB008860EACF59
:105190008111AACF109184021F778091E30080785B
:1051A000812B8093E3008091E800877F8093E80063
:1051B0000E9440268091E80080FFFCCF8091E300B0
:1051C00080688093E30083E0111101C082E0809346
:1051D00081028ACF8058823008F086CF8091840285
:1051E000909185028C3D23E09207A1F583E08A83AC
:1051F0008AE289834FB7F894DE01139620E03EE0FF
:1052000051E2E32FF0E050935700E49120FF03C0F8
:10521000E295EF703F5FEF708E2F90E0EA30C0F0C4
:10522000C7968D939D932F5F243159F74FBF80917F
:10523000E800877F8093E8006AE270E0CE01019683
:105240000E944D258091E8008B778093E8004CCF39
:10525000C096E7CFAE014F5F5F4F609186020E941C
:105260009324BC01892B09F43FCF9091E800977FEC
:105270009093E80089819A810E94AC25E3CF803821
:1052800009F032CF8091E800877F8093E800809119
:105290007D028093F1001DCF811126CF9091840271
:1052A000923008F021CF8091E800877F8093E8005A
:1052B00090937D020E94402680917D02882331F0E8
:1052C00084E0809381020E9495230ECF8091E300B9
:1052D00087FDF6CF81E0F5CF0895CF9380918102CD
:1052E000882399F0C091E900CF708091EC0080FD97
:1052F0000EC080E0C82B1092E9008091E80083FD89
:105300000E941828CF70C093E900CF91089580E8DB
:10531000F1CF0E9490296894B1110C941F2A08952E
:105320000E94042A88F09F5798F0B92F9927B75107
:10533000B0F0E1F0660F771F881F991F1AF0BA9539
:10534000C9F714C0B13091F00E941E2AB1E008954F
:105350000C941E2A672F782F8827B85F39F0B93F41
:10536000CCF3869577956795B395D9F73EF49095EC
:105370008095709561957F4F8F4F9F4F0895E8946A
:1053800009C097FB3EF490958095709561957F4F8D
:105390008F4F9F4F9923A9F0F92F96E9BB2793953B
:1053A000F695879577956795B795F111F8CFFAF44B
:1053B000BB0F11F460FF1BC06F5F7F4F8F4F9F4F7C
:1053C00016C0882311F096E911C0772321F09EE8DA
:1053D000872F762F05C0662371F096E8862F70E040
:1053E00060E02AF09A95660F771F881FDAF7880F1A
:1053F0009695879597F9089557FD9058440F551F36
:1054000059F05F3F71F04795880F97FB991F61F046
:105410009F3F79F087950895121613061406551FBD
:10542000F2CF4695F1DF08C0161617061806991F29
:10543000F1CF86957105610508940895E894BB271E
:1054400066277727CB0197F908950E94382A0C9494
:10545000A92A0E949B2A38F00E94A22A20F09523B4
:1054600011F00C94922A0C94982A11240C941F2A5F
:105470000E94FC2970F3959FC1F3950F50E0551FD2
:10548000629FF001729FBB27F00DB11D639FAA2799
:10549000F00DB11DAA1F649F6627B00DA11D661FE8
:1054A000829F2227B00DA11D621F739FB00DA11D09
:1054B000621F839FA00D611D221F749F3327A00DC3
:1054C000611D231F849F600D211D822F762F6A2F5F
:1054D00011249F5750409AF0F1F088234AF0EE0FC4
:1054E000FF1FBB1F661F771F881F91505040A9F7F1
:1054F0009E3F510580F00C94922A0C941F2A5F3F26
:10550000E4F3983ED4F3869577956795B795F7952C
:10551000E7959F5FC1F7FE2B880F911D96958795A4
:1055200097F9089597F99F6780E870E060E0089523
:105530009FEF80EC089500240A94161617061806AB
:105540000906089500240A94121613061406050687
:105550000895092E0394000C11F4882352F0BB0F18
:1055600040F4BF2B11F460FF04C06F5F7F4F8F4F7B
:105570009F4F0895AA1BBB1B51E107C0AA1FBB1F69
:10558000A617B70710F0A61BB70B881F991F5A95CF
:10559000A9F780959095BC01CD01089597FB072E42
:1055A00016F4009407D077FD09D00E94BA2A07FCB0
:1055B00005D03EF4909581959F4F08957095619523
:1055C0007F4F0895EE0FFF1F0590F491E02D099491
:1055D000F999FECF92BD81BDF89A992780B50895BB
:1055E000A6E1B0E044E050E00C94222BA8E1B0E04A
:1055F00042E050E00C94222B262FF999FECF92BD69
:1056000081BDF89A019700B4021639F01FBA20BD87
:105610000FB6F894FA9AF99A0FBE08950396272FB9
:105620000E94FD2A0E94FC2A252F0E94FD2A242F79
:105630000C94FD2A0196272F0E94FD2A0C94FC2A27
:10564000DC01CB01FC01F999FECF06C0F2BDE1BD42
:10565000F89A319600B40D9241505040B8F7089531
:04566000F894FFCFEC
:10566400FF0D022808140A321E9E2230230B23D574
:1056740022A12201C633379734353666673231307A
:10568400F7F6959092939496404D3639A40E570EA2
:0C569400210EE80D7B0D940DAD0DC60D30
:00000001FF
